:1020000000800020D9770000E9760000C177000049
:1020100000000000000000000000000000000000C0
:10202000000000000000000000000000C177000078
:102030000000000000000000C17700002D780000C3
:10204000C1770000C1770000C1770000C1770000B0
:10205000B1760000C177000029310000C57700008B
:10206000C1770000C1770000C1770000F93A000095
:10207000C177000081440000C1770000C1770000F3
:10208000C1770000C1770000C1770000C177000070
:1020900000000000C1770000C1770000C177000098
:1020A000C1770000C1770000C1770000C177000050
:1020B0000000000010B5064C2378002B07D1054B1B
:1020C000002B02D0044800E000BF0123237010BDA4
:1020D00098020020000000006CF70000044B10B5CF
:1020E000002B03D00349044800E000BF10BDC046E8
:1020F000000000009C0200206CF7000070B5174D36
:102100001749280005F048FB164C174E22003100F5
:10211000280005F0B7FF154D1549280005F03CFBD8
:1021200031002200280005F0ADFF124B05211A886E
:10213000114B12481A800323042201F0FFFC104DBA
:10214000280000F0E5FA220028000E4905F09AFF69
:102150000D4B1A680D4B1A6070BDC046E404002098
:1021600028E800000000002009770000F0040020AB
:1021700040E8000010000020700D00200C05002039
:10218000B8020020132700000C000020FC040020EF
:10219000F0B585B005F058FB0025CB4F3860002026
:1021A00005F05EFD07F0CCFEC84C00222E19306011
:1021B00071600021C64EAB1919605A6005F044FBEE
:1021C000C44A3B681268C01A9042F7D39B183B6020
:1021D00080230835DB009D42E1D10127BE4D3B0045
:1021E000280000978022210000F022FC28000097A0
:1021F00080233200210000F0E5FB28000025802329
:102200003200210000F0EEFBB44F092D17D9280051
:1022100007F05CFE0022B24B07F04CF8FE230022D0
:102220009B0507F047F806F001F9AE00EB00F61940
:10223000E31830801868596806F0F8F870800135A6
:10224000802DE2D1A74D280003F0F8FE00281EDD06
:10225000280003F01BFF8023FE27A04E9B00A24C0A
:10226000F618A64213D06388FE2B00D96780218818
:102270000A22280003F0B1FC9C49280003F044FC2A
:1022800061880A22280003F0ACFC0434E9E7282323
:10229000974CFF33238003932288964D002A00D168
:1022A000E6E0954E8D4B3168944F8900C85A5B1813
:1022B00093495B88098838802B60814200D8CDE043
:1022C00090490988814200D3C8E08F4909688B4250
:1022D00000DCC3E0182B0EDC8C498D4B0020095E1E
:1022E0000F201B7801908B4812B20027C05F00902E
:1022F000894801F032F82B68193B182B0FD80021C0
:10230000625E8249824B0020095E84481B780190FE
:1023100080480027C05F00907F4801F01EF82B68BE
:10232000323B182B0FD80021625E7849784B002091
:10233000095E7B481B78019076480027C05F0090BB
:10234000754801F00AF82B684B3B182B0FD8002179
:10235000625E6E496E4B0020095E72481B780190E8
:102360006C480027C05F00906B4800F0F6FF2B68B8
:10237000643B182B0FD80021625E6449644B002037
:10238000095E69481B78019062480027C05F009091
:10239000614800F0E2FF2B687D3B182B0FD800212D
:1023A000625E5A495A4B0020095E60481B780190D2
:1023B00058480027C05F0090574800F0CEFF2B68B8
:1023C000963B182B0FD80021625E5049504B0020DD
:1023D000095E57481B7801904E480027C05F009067
:1023E0004D4800F0BAFF2B68AF3B182B0FD80021E7
:1023F000625E4649464B0020095E4D481B780190BD
:1024000044480027C05F0090434800F0A6FF2B68B7
:10241000C83B182B0FD80021625E3C493C4B002082
:10242000095E43481B7801903A480027C05F00903E
:10243000394800F092FF2B68E02B0FDD0021625E2F
:102440003249334B0020095E3A481B7801903148ED
:102450000027C05F0090304800F07FFF33680133F1
:102460003360802B28DD002333606B469B892380FB
:10247000314C2948236899B201F024FE9122236847
:10248000520001332360934202DD2C4B1B68236012
:102490001E4A1F4B11881B7801315B1828499BB2DB
:1024A0000888F02149001380091A8B4200DD108052
:1024B00000232B6005B0F0BD164A23881288013B2B
:1024C0009B1A2380E8E6C046000500207009002022
:1024D0007005002004050020B8020020D80200206A
:1024E0000040AF40801200200003002056E80000AA
:1024F0001400002008050020D8040020DC0400207F
:102500000400002006000020E0040020700D0020E0
:1025100012000020080000200C05002028140000F4
:10252000B72500003E360000FF5200009F6B000000
:10253000FFFF0000E0FF0000FC0400200C00002072
:102540001000002013B5174B174C1F222361DC230A
:1025500001923B320092200014325B00142101F002
:1025600029FF01235B4263612000032101F09FF9F1
:102570000E49200003F0DAFA0D4B200023610D4BC9
:102580000321636101F093F90B49200003F0CEFAB7
:10259000FA20C00005F088F90021200001F0C0FAFF
:1025A00013BDC0461E0078000C050020E404002086
:1025B0003200AA00E0FFE0FFF004002070B53649C9
:1025C000364803F0D9FDFA22354C364B20001A600C
:1025D00001F07EFB2000012101F03EFB324A200089
:1025E000324901F029FDFFF7ADFF314B2000236197
:1025F00001235B426361022101F059F92D4920005A
:1026000003F09EFA2C4B2D492361200003F098FA29
:102610002B4B2C492361200003F092FA2A4B2B49C3
:102620002361200003F08CFA294B2A492361200002
:1026300003F086FA284B29492361200003F080FA31
:10264000274B28492361200003F07AFA264B2749BB
:102650002361200003F074FA254B264923612000F2
:1026600003F06EFA244B25492361200003F068FA39
:10267000234D244B29002361200003F061FA224BF3
:1026800029002361200003F05BFA204B290023611D
:10269000200003F055FA70BD802401008012002054
:1026A0000C050020040500209BFF00003BFE0000FD
:1026B0000A0028005CE800000A00EF0061E8000062
:1026C0000A00CB0066E800000A00BB006BE80000CF
:1026D0000A00AB0070E800000A00940075E80000F2
:1026E0000A0079007AE800000A0065007FE800002F
:1026F0000A00550084E800000A00460089E800004E
:102700008EE8000038001001AA001001300110010D
:1027100070477047F0B597B00892002209931CAB40
:102720001B78079115930999099B01395B08009360
:102730008C461300624500DA8CE000230D930133D0
:102740000C9300230E930A9300239B4C0093019457
:10275000159B0D9A934200D106E10C9B00245B006F
:102760009BB214930023049305940023934C02938B
:10277000039400230B930B9B0C9A934200D1C8E067
:102780001C00099B9C4200D392E00C9B1D19ADB22A
:10279000079BED005B190F931A685B681092119309
:1027A00010981199089B5D19029A039B06F082FD0F
:1027B0002E686F68049A059B1290139130003900BF
:1027C00006F078FD02000B001298139906F0E4FF62
:1027D000029A039B129013913000390006F06AFDB3
:1027E000049A059B06000F001098119906F062FDEF
:1027F00002000B003000390005F036FE079BE600B2
:102800009F1910901191129A139B3868796806F0FD
:10281000C3FF0F9B18605960089B9E193068716850
:10282000109A119B06F0B8FF129A139B28606960FA
:102830003868796805F018FE109A119B3860796045
:102840003068716805F010FE149B30607160E41808
:10285000A4B296E793421FD90799079CD0000F189E
:10286000D90066183C687D680294039534687568E1
:102870003C607D60029C039D346075601D9C002C53
:102880000AD1089C61182018046845680E684F68D2
:10289000066047600C604D6000998B4203D35B1A61
:1028A0009BB24908F9E75B1801329BB292B241E74B
:1028B000029A039B0098019906F0FCFC049A059B80
:1028C00004000D000E980A9906F0F4FC02000B00BB
:1028D0002000290006F060FF049A059B06000F0007
:1028E0000098019906F0E6FC029A039B04000D0093
:1028F0000E980A9906F0DEFC2B00220005F0B4FDCC
:102900000B9B0490059101339BB20B9302960397A6
:1029100031E7009A019B0020284906F03DFF002284
:10292000274B06F0C7FC01F039FE00220E900A91F9
:10293000224B0098019905F097FD214B002206F0EB
:10294000B9FC01F02BFE1D9B00900191012B05D1DC
:102950008022120694460A9B63440A930D9B01331E
:102960000D93149B0C93F3E61D9B012B22D0099829
:1029700007F0ACFA0B0002001049002006F090F8B6
:1029800006000F00099B079CDB00E318089D0093DD
:10299000009B9C420ED02068616832003B0006F02C
:1029A00089FC03C43200286869683B0006F082FC99
:1029B00003C5EDE717B0F0BD0000F0BF0000F03F29
:1029C0000000E03F73B51D0000246E10B5B2002E6C
:1029D00002D00134E4B2F8E7069D00940195FFF7B8
:1029E00099FE73BDF0B50C001500DB0085B0CB1867
:1029F0000193019B9C4218D022686368C0CD1000EF
:102A0000190006F057FC3200029003913B003000A1
:102A1000390006F04FFC02000B000298039905F004
:102A200023FD01F0BBFD03C4E3E705B0F0BD0000EA
:102A3000F0B510008DB004920B93059107F080FA69
:102A4000EA4B002206F0A8FE049B029003915B1063
:102A50000A9300230193019B0A9A934200DB25E22B
:102A6000180007F06DFA029A039B06000F0006F0AB
:102A700017F80B9B0400581E0D00082800D9A4E18C
:102A800005F016FB09001B0053007E00C200F00099
:102A90002C0168018C01D64AD64B200006F00AFCB6
:102AA00001F036FDD44AD54B06F004FC02000B00C1
:102AB000D348D44906F070FE10E0CD4ACD4B20003B
:102AC00006F0F8FB01F024FD02000B000020C749CE
:102AD00006F062FECA4ACB4B06F0ECFB04000D0088
:102AE000019BDF00059BDF19019B386879685E1C3C
:102AF000049B9E1B059BF6009E19129B012B00D088
:102B000066E102000B002000290006F0D3FB3860CC
:102B100079602200306871682B0006F0CBFB019BC6
:102B20003060716001339BB294E7002202980399F0
:102B3000B54B06F0BFFB02000B003000390006F079
:102B40002BFE002200230D00040005F05BFC002892
:102B50000ED022002B002000290005F085FC029AEF
:102B6000039B05F09DFF02000B0000209F49A1E799
:102B700080231B06ED1822002B0020002900ECE723
:102B80009B4A9C4B200006F095FB01F0C1FC9F4A3C
:102B90009F4B06000F002000290006F08BFB01F080
:102BA000B7FC9C4A069007919B4B2000290006F039
:102BB00081FB01F0ADFC994A08900991984B3000D7
:102BC000390006F077FB02000B009648964906F0A4
:102BD000E3FD964A04000D0006980799944B06F011
:102BE00069FB02000B002000290005F03DFC0400F9
:102BF0000D00904A904B0898099906F05BFB020083
:102C00000B002000290055E7794A7A4B200006F096
:102C100051FB01F07DFC7D4A7D4B06000F0020003A
:102C2000290006F047FB01F073FC844A06900791E7
:102C3000834B3000390006F03DFB02000B00814859
:102C4000814906F0A9FD04000D00804A804B0698DA
:102C5000079906F02FFB02000B002000290005F069
:102C600003FC3BE7624A634B200006F023FB01F0C4
:102C70004FFC664A664B06000F002000290006F054
:102C800019FB01F045FC634A06900791624B200056
:102C9000290006F00FFB01F03BFC6E4A08900991F9
:102CA0006D4B3000390006F005FB02000B006B484D
:102CB0006B4906F071FD6B4A04000D0006980799F8
:102CC000694B06F0F7FA02000B002000290005F01E
:102CD000CBFB664A04000D00654B8CE7444A454B2C
:102CE000200006F0E7FA01F013FC484A484B0600C2
:102CF0000F002000290006F0DDFA01F009FC454A2A
:102D000006900791444B2000290006F0D3FA01F009
:102D1000FFFB584A08900991574B3000390006F0E4
:102D2000C9FA02000B005548554906F035FD554AD1
:102D300004000D0006980799534B06F0BBFA0200F9
:102D40000B002000290005F08FFB504A04000D0005
:102D50004F4B50E7264A274B200006F0ABFA01F014
:102D6000D7FB2A4A2A4B06000F002000290006F054
:102D7000A1FA01F0CDFB474A06900791464B30007F
:102D8000390006F097FA02000B004448444906F067
:102D900003FD444A04000D00434B58E7002202980B
:102DA0000399194B06F086FA04000D0002000B008F
:102DB0003000390006F0F0FC22002B0005F070FE18
:102DC00002000B0006F076FACDE60024074D87E6F8
:102DD00022002B0005F064FE386079602200306824
:102DE00071682B0005F05CFE99E6C0460000F03FDC
:102DF00068A17454FB211940713D0AD7A370DD3FCF
:102E000048E17A14AE47E13F0000E03F2CBB1E547E
:102E1000FB2129400E79577F7CD93240B9E00CFE66
:102E20007E31DF3F2AA73D25E7C4D63FABB184B54D
:102E30003176C23FDEE8633E20D0893FB9FC87F49B
:102E4000DBD7DF3FBCE82B483316DB3F2B6A300D66
:102E5000C347B43F3B191C25AF4EDF3F04B97A048A
:102E6000ED44D73FA13193A8177CC13F189EF24390
:102E700000CB853F8EAF3DB32440DF3FF6285C8F0B
:102E8000C2F5D63FBD18CA897615C23FB26323107A
:102E9000AFEB873FBD7ED29A30ABE03F8984A5700F
:102EA000F3FCD13F52CCE6165F59C93F0DB0F0BDDF
:102EB00000207047F0B5040085B01E000AAB1B78F7
:102EC000103001930BAB1B78170002930CAB1B78EF
:102ED0000D00039300F0F4F82000243000F0F0F827
:102EE000220000234032A363E363137063729D42A8
:102EF00005D10A4B0A4A22210A4807F0F5F86B4629
:102F00001B79200063716B461B7A2560E3716B4669
:102F10001B7B2771A671237205B0F0BD90E80000FD
:102F200005E90000A1E80000437A002B04D1837278
:102F3000C372C36001334372704730B5040085B07B
:102F400002AD00680291039202F0F7FE6B79227ADB
:102F5000E17900932068002303F03AF82979029A76
:102F6000206802F00FFF206802F0DDFE05B030BDE2
:102F700070B518260400FFF7D7FF33000821207929
:102F80000D4D4343EB18595604F032FF330008212E
:102F9000A0794343EB18595604F02AFF08216079C1
:102FA0004643AD19695604F023FF044B200006CBBD
:102FB000FFF7C3FF70BDC04630EF0000B80D002022
:102FC00007B5837A00910192002B07D09A070AD5A2
:102FD000EFF310835A425341C37272B60099019ABB
:102FE000FFF7ABFF07BDDB07F8D5C368014A9BB20B
:102FF0009360F3E700180040837A002B05D09A070E
:1030000004D5C37A002B00D062B67047DB07FCD52D
:10301000C368024A9BB2D360F7E7C046001800407D
:1030200010B5006802F092FE10BD00001FB5094BFC
:10303000094A0A491A6000225A711A71012302933F
:103040000193093300930932023B0548FFF732FF31
:1030500005B000BDB80D002000093D006812002039
:10306000740D0020094B1868002809D1EFF3108275
:103070000749002A08D172B6BFF35F8F01320A7088
:103080001A6801321A6070470870F9E7C40D002011
:10309000C00D0020084B1A68002A0CD01A68013AAB
:1030A0001A601B68002B06D1044B1B78002B02D042
:1030B000BFF35F8F62B67047C40D0020C00D0020C3
:1030C000FF23002110B504000370FC3B41708170A8
:1030D000C170017143710C22083007F0B1F8200073
:1030E00010BD000001220B0010B5134008D00D4B9D
:1030F0001A70042343708368002B00D0984710BDDA
:103100000222114204D007490A704370C368F3E7F2
:1031100004231942F3D0034A137003334370036945
:10312000EAE7C0464E48004110B5FFF79BFF0C4B45
:103130001B8C1B071B0F0B2B0FD80A4A99008858B2
:1031400000280AD00F2408490A78A24313430B70C1
:10315000064B1978C9B2FFF7C5FFFFF79BFF10BDFB
:1031600000480041C80D00203F4800414E48004142
:103170007047F0B51D0089B00EAB00241C5F0FAB8B
:103180001B8816000693A31ADA179B185340029364
:103190006B1ADA179B1853400393039A029B019012
:1031A000934205DC23002C001D0033000E001900A3
:1031B000A64205DC2B000D001900230034001E0080
:1031C000331B9BB204934B1BDA179B185340079396
:1031D0006B4610229A5ED30F9B185B10009301235D
:1031E0008D4221DA0593B44224DC019B039A1B68CB
:1031F0009B691F00029B934218DD22002900069B59
:103200000198B847009B079A9B1A9BB21AB200928A
:10321000002A06DA059AAD18049A2DB2D3181BB20B
:103220000093013424B2DEE75B42DBE7069B2A0011
:103230002100E5E709B0F0BD704710B504682469C6
:10324000A04710BD37B506AC258804680095A46B6F
:10325000A04737BD37B506AC258804680095E46BF8
:10326000A04737BD73B506AC0025655F07AC26885F
:10327000046801960095246CA04773BDF0B5160054
:1032800004000D0085B003930AAB1F8803685B69D7
:103290009847039B2268013B9B191BB2009301973F
:1032A000976A2B00320029002000B84723682000CD
:1032B000DB6A984705B0F0BDF0B505001C000E00B4
:1032C000170085B00AAB1B88013C03930368A4195F
:1032D0005B69984703992A680191009723B23100EE
:1032E000946A28003A00A0472B682800DB6A9847B8
:1032F00005B0F0BDF0B50E0087B003930CAB0292A1
:1033000000229B5E050004930DAB1B8834000593DF
:1033100003685B699847039A2B68B21894420ADAEB
:10332000059A210000921F6A029A049B280001342A
:10333000B84724B2EFE7DB6A2800984707B0F0BD32
:1033400013B501910E24015F0C22835E0268009187
:10335000146C00221100A04713BDF0B50400150045
:103360000E0087B004930CAB00229B5E05930DAB5F
:103370001B88039303685B699847039A236800924C
:103380005F6A2A00049B31002000B847059B03991F
:103390005A1E2368009152195F6A3100049B200075
:1033A00012B2B847039A236800921F6A2A00059B4D
:1033B00031002000B8470499039A2368013900922C
:1033C000891909B21F6A2A00059B2000B8472368A3
:1033D0002000DB6A984707B0F0BD7047F0B585B0B4
:1033E0001E000AAB0027DF5F0BAB1B881400050033
:1033F000029103930268B14210D1BC4202DC3B004F
:1034000027001C00039901340091E31B966B1BB24B
:103410003A0002992800B04705B0F0BDBC4211D176
:10342000029BB34202DC3300029E0293029B03998B
:10343000013300919B1BD76B1BB222003100280087
:10344000B847E9E753699847039A2B6801920097B8
:103450009F6A2800330022000299B8472B68280091
:10346000DB6A9847D8E70323194010B50822835E2A
:1034700081760A24025F012904D0032902D08381C6
:10348000C28110BD8281C381FBE700004281C281FD
:103490000122524242610222002310B5FF32074C42
:1034A0000283013A0834FF3A43600460018181815C
:1034B00003618376C2760377036210BD5CEE000081
:1034C000F0B595B01D001AAB1B88040005931BAB2B
:1034D0001E881CAB1B78089103931DAB1B780492CC
:1034E0000293036A002B00D0C4E00C22835E8B425F
:1034F00000DC7DE00E22835E049A934278DD062391
:10350000039A53435B18002B72DD029B049ADB0085
:103510009B18002B6CDD037F002B03D1AF2D01D94D
:103520000135EDB2236820005B69984705235D43B0
:103530000B9300230793984B5B190F93079A0F9BEC
:103540009B5C0A936B469B8B09936B469B890D93FF
:103550006B460D9A1F8C099B5343FB181BB20E93AD
:1035600008230C930023069301220A9B2068134230
:1035700052D06B461A8B198A039B012B3AD1029BBE
:10358000012B37D1099B52188569D919059B12B2B5
:1035900009B22000A847069B01335BB206930A9B41
:1035A0005B080A930C9B013BDBB20C93002BDBD135
:1035B000079B01335BB207930B9B013BDBB20B9381
:1035C000002BBBD1059BB3420ED0039B2268012B7D
:1035D0003FD1029B012B3CD105370096156A39B2C9
:1035E0000733049A2000A84723682000DB6A984725
:1035F00015B0F0BD6B460C255B5F029D6A438A18CF
:10360000059912B2019169460825495F0091C56983
:103610000E992000A847BEE7059BB342BBD06B467E
:10362000198B1A8A039B012B0AD1029B012B07D10C
:10363000099B5218D91912B209B285693300A8E75B
:103640006B460C255B5F029D01966943521812B2CE
:10365000D9E76B460C215B5E05210D98019641432D
:1036600002987918C0000090D56909B2049A200028
:10367000A847B9E71A7AAD1AEDB25A68ED001B688F
:10368000551913932B880993AB780D93EB7811930D
:103690000523EB560E930623EB560F93039B012B4A
:1036A00002D8029B012B56D96B4638229B5E0B93A6
:1036B0006B463C229B5E0C930027236820005B69CD
:1036C000984707970697119B069A9A4200D38BE773
:1036D0006B461B8A00260A930C9B9B18029A534345
:1036E0000A9AD3181BB210933B000D9A96424BD204
:1036F0005A1CD2B212920722134207D1099B099990
:10370000139A0133525C9BB2079209936B461B7F5D
:103710005BB2002B17DA6B46198C039B2068012BD8
:103720001DD1029B012B1AD10A9B0F9A9A18069B56
:10373000D2180E9B12B2C918836989191D0009B2EB
:10374000059B2000A847079B01365B00DBB207936F
:10375000F6B2129BC9E700230C930B93ACE76B46C0
:103760000C229B5E0B9A039D92196A438918059A55
:1037700009B201926A460825525F0092C269200090
:103780001500109AA847DEE7069D0D9B0135FF182E
:10379000EBB2FFB2069396E759E90000F0B5026A72
:1037A00085B004000B00002A34D10A2908D1437ED9
:1037B0000282DB00628A9B186382012005B0F0BDA3
:1037C0000D29FAD0E17E007E657E00290ED01026FC
:1037D000A15F0626464389190C27E65FB14205DD45
:1037E0001226A15F2282EA00521862820290E08AC9
:1037F0001221625E0190A08A1026A15F00900395BD
:103800002000FFF75DFE0622237E5343228A9B1889
:103810002382D2E70A2905D100230382127B437E4B
:103820005343C7E70D29C8D0117A8B42C5D3907A8C
:103830009842C2D3591AC9B25068C9004518AF7826
:10384000002F28D0E978002925D0E17E207E667EF1
:10385000002913D005216956C91941438C4610210E
:10386000675EBC440C21675EBC4507DD1227E15F43
:1038700000272782127B7243521862820290E08AEC
:103880001221625E0190A08A1027E15F00900396EA
:103890002000FFF715FE2B79227EB6E7002900D124
:1038A00001310176002A00D101324276704710B50D
:1038B0000A00FFF7F3FF10BDF8B505000E00170072
:1038C0000024BC4208D02B68315D1B682800984753
:1038D000002801D00134F4E72000F8BD7047030050
:1038E000FC33196ADA69914203D01B6AC018007E62
:1038F000704701204042FBE70300FC33D8691B6A94
:10390000C01A01D50130FF3070470000F7B50193B0
:10391000FA238026002504009B008360124B76006A
:1039200008330F0045602900009203603200183010
:1039300006F086FC23002000FC332130DD613200DC
:103940001D622900FF3006F07BFC87239B00E318F3
:103950005D609D606B461B78276123756B461B7904
:10396000A57520006375FEBDB4EE0000020010B521
:10397000FC32536894680133DBB29C4202D0546835
:103980000155536010BD002210B5837D93420DD0C8
:1039900087239B00C4186368A4680133DBB2A34289
:1039A00004D02130FF30FFF7E1FF0122100010BDED
:1039B0000300FC3399685A68914206D09A68805C8B
:1039C0009A680132D2B29A60704701204042FBE708
:1039D00010B51830FFF7ECFF10BD70B5040000699A
:1039E00002F01AFA002814D0206902F023FA002805
:1039F00010D0206902F0E2F90321206902F0E8F911
:103A00008C239B00E558002D39D10023FC34E36161
:103A1000236270BD206902F017FA002809D02069DE
:103A200002F00DFA002804D0206902F012FA0028F2
:103A3000DFD0206902F008FA002826D1206902F0C0
:103A4000F4F90028E5D0206902F003FA002837D005
:103A500087239B00E218536892689B1A01D50133B3
:103A6000FF33FF21002B05D020002130FF30FFF76E
:103A70009FFFC1B2206902F0C1F9A075C9E72368B0
:103A800020001B699847A847BFE7206902F096F914
:103A90002069032102F09CF9206902F0DAF900287C
:103AA000B7D0872300229B00E3185A609A60012355
:103AB000A3758B239B00E3589342AAD09847A8E7AD
:103AC0002200FC32D369126A0133DBB220699342CF
:103AD00006D102F06AF90321206902F079F998E72A
:103AE00002F0BCF9010020001830FFF73FFF206909
:103AF00002F064F9EFE7000010B50248FFF76DFF30
:103B000010BDC046F80D002010B50523042202495F
:103B10000248FFF7FBFE10BD70120020F80D0020D8
:103B200013B501910E24015F0C22835E026800919F
:103B3000146C00221100A04713BD0000F8B50F005F
:103B40001600A021F0220400520049001D00FFF7DA
:103B50009DFC0122064BE76308332360A31D266406
:103B60006564DA77002320002365A364F8BDC046AE
:103B7000D8EE0000F8B5831DDB7F002B03D00E4884
:103B8000FFF74EFAF8BD08248025C36A826A476DA4
:103B900016680D420ED03E4316601E68876D013CCC
:103BA0003E431E601E68876D6D08BE431E60002C7C
:103BB000EDD1E7E7BE43EFE7740D002010B5040038
:103BC000026B006E136883431360A26BE06D136891
:103BD000834313602000FFF7CDFFA26BE16D1368F4
:103BE0000B43136010BD000073B5851DEB7F06000D
:103BF0000C00002B08D06A46002353711371094949
:103C0000019A0948FFF7DCF9611E8C412100300060
:103C10002031FFF7D3FFEB7F002B02D00248FFF7E4
:103C2000EBF973BD808D5B00740D002010B50400AE
:103C3000026B006E136803431360A26BE06D1368A0
:103C4000834313602000FFF795FFA26BE16D1368BB
:103C50000B43136010BD000073B5861DF37F040095
:103C60000D00002B08D06A460023537113711449CC
:103C7000019A1448FFF7A4F936212000FFF79EFFB0
:103C800003212940A176022916D0032916D0012943
:103C90000CD048212000FFF7C9FF0B4BE360F37FF6
:103CA000002B02D00748FFF7A7F973BD2821200099
:103CB000FFF7BCFF054BF1E78821EBE7E821F6E7CA
:103CC000808D5B00740D00204001E001E0014001A7
:103CD000F0B50400406C85B0002806DD012104F039
:103CE00021F80021606C04F04DF81827012601210D
:103CF000206C04F017F80121E06B04F013F8E36B7B
:103D0000C84D7B435A57C849D2015218A2633200AA
:103D1000EB185B689A40236CE2657B435A57EB18BB
:103D2000D2015218226332005B689A40A31D2266BA
:103D30000193DB7F0093002B00D142E1BB48FFF7EA
:103D400017F9606C002813DD012104F01BF8052031
:103D500003F0AAFD0021606C04F014F8142003F0B5
:103D6000A3FD606C012104F00DF8962003F09CFD8A
:103D7000A31DDB7F002B08D0002302AA537113710F
:103D8000AB49039AA948FFF71BF9E0212000FFF790
:103D900015FF00212000FFF749FF03212000FFF756
:103DA00045FF09212000FFF741FF08212000FFF710
:103DB0003DFF16212000FFF739FF0A212000FFF701
:103DC00035FF3F212000FFF731FF78212000FFF76A
:103DD0002DFF4C212000FFF729FF09212000FFF7CC
:103DE00025FF0A212000FFF721FF08212000FFF70F
:103DF0001DFF16212000FFF719FF1A212000FFF7F1
:103E000015FF0F212000FFF711FFE1212000FFF730
:103E1000D5FE00212000FFF709FF16212000FFF743
:103E200005FF19212000FFF701FF03212000FFF704
:103E3000FDFE0F212000FFF7F9FE05212000FFF70E
:103E4000F5FE32212000FFF7F1FE45212000FFF7AB
:103E5000EDFE46212000FFF7E9FE04212000FFF7D8
:103E6000E5FE0E212000FFF7E1FE0D212000FFF707
:103E7000DDFE35212000FFF7D9FE37212000FFF7B6
:103E8000D5FE0F212000FFF7D1FEC0212000FFF753
:103E900095FE17212000FFF7C9FE15212000FFF72E
:103EA000C5FEC1212000FFF789FE41212000FFF758
:103EB000BDFEC5212000FFF781FE00212000FFF795
:103EC000B5FE12212000FFF7B1FE80212000FFF790
:103ED000ADFE36212000FFF771FE48212000FFF7DC
:103EE000A5FE3A212000FFF769FE66212000FFF7BA
:103EF0009DFEB0212000FFF761FE80212000FFF72A
:103F000095FEB1212000FFF759FEA0212000FFF708
:103F10008DFEB4212000FFF751FE02212000FFF7A3
:103F200085FEB6212000FFF749FE02212000FFF7A1
:103F30007DFE02212000FFF779FEE9212000FFF736
:103F40003DFE00212000FFF771FEF7212000FFF762
:103F500035FEA9212000FFF769FE51212000FFF75F
:103F600065FE2C212000FFF761FE82212000FFF773
:103F70005DFE11212000FFF721FEA31DDB7F002B3A
:103F800002D02A48FFF738F8782003F08DFCA31DF3
:103F9000DB7F002B08D0002302AA53711371244940
:103FA000039A2248FFF70CF829212000FFF706FEAC
:103FB000019BDB7F002B02D01C48FFF71DF805B0EA
:103FC000F0BD3100206D03F0ADFE3100A06C03F0B8
:103FD000A9FE0099E06C03F0A5FE236D12487B4317
:103FE0005957144AC9018A180918E1623100EB18BF
:103FF0005B68944699400200A36CA1655F437857C3
:104000000C4BC001C318ED198018A06268686246A5
:10401000864066651069884310611A69616D8A433C
:104020001A618EE630EF000010440041740D00204C
:10403000808D5B0000440041F0B5831D85B0019385
:10404000DB7F04000E001500002B08D0002302AA1D
:10405000537113711949039A1948FEF7B1FF3321BF
:104060002000FFF7ABFDF7B2310A2000FFF7DEFDBD
:1040700039002000FFF7DAFD0E23E15E2000891BE6
:10408000491B0912C9B2FFF7D1FDE189EEB2C91B84
:10409000891BC9B22000FFF7C9FD290A2000FFF7DC
:1040A000C5FD31002000FFF7C1FD019BDB7F002B28
:1040B00002D00348FEF7A0FF05B0F0BD808D5B0085
:1040C000740D002073B5861DF37F04000D00002BD6
:1040D00008D06A460023537113710C49019A0C48A9
:1040E000FEF76EFF37212000FFF768FD290A200048
:1040F000FFF79CFDE9B22000FFF798FDF37F002B4E
:1041000002D00348FEF778FF73BDC046808D5B0088
:10411000740D0020F7B504000F001E00150008AB59
:104120001B882A210193FFF749FD390A2000FFF778
:104130007DFDF9B22000FFF779FD310A2000FFF77D
:1041400075FDF1B22000FFF771FD20002B21FFF774
:1041500035FD290A2000FFF769FDE9B22000FFF7CD
:1041600065FD019B2000190AFFF760FD6B462000EA
:104170001979FFF75BFD2C212000FFF71FFDF7BD2C
:10418000F7B506000D0048113F21FF2408406043A9
:1041900004F022F81F2700902800384039006043BF
:1041A00004F01AF80190E80A3900604304F014F8AA
:1041B000C1B23000FFF7DEFC6B4630001978FFF724
:1041C000D9FC6B4630001979FFF7D4FCF7BD00002D
:1041D000F0B587B004000D001600039300293ADB08
:1041E0000C22835E8B4236DD002E34DB0E22835E92
:1041F000B34230DD871DFB7F002B09D0002204ABCA
:1042000016495A711A71059A15480491FEF7D8FE9D
:10421000B2B2A9B2501C4B1C80B29BB200902000DD
:10422000FFF778FF226B216E136820000B431360A9
:10423000A26BE16D13688B4313600399FFF7A0FF36
:10424000A26BE16D13680B431360FB7F002B02D060
:104250000348FEF7D1FE07B0F0BDC046808D5B007D
:10426000740D0020F0B587B01D000CAB1B880E004C
:1042700002930C21435E0400B34241DD0E21435EF4
:104280009A423DDA97B252199A4201DDDD1B2DB2F6
:10429000A31D0393DB7F002B09D0002204AB194937
:1042A0005A711A71059A18480491FEF789FE7B1E0F
:1042B0005B19B1B29BB200933A000B002000FFF7EC
:1042C00029FF226B216E13680B431360A26BE16D13
:1042D00013688B431360013D2DB26B1C04D002990F
:1042E0002000FFF74DFFF6E7A26BE16D13680B436B
:1042F0001360039BDB7F002B02D00348FEF77CFE9C
:1043000007B0F0BD808D5B00740D0020F0B587B064
:104310001D000CAB1B88160002930C22835E040068
:104320008B4240DD0E20225EB2423CDD8FB2491945
:10433000994201DDDD1B2DB2A31D0393DB7F002B12
:1043400009D0002204AB19495A711A71059A18480C
:104350000491FEF735FE7B1EB2B25B199BB2009250
:1043600039002000FFF7D6FE226B216E13680B4345
:104370001360A26BE16D13688B431360013D2DB296
:104380006B1C04D002992000FFF7FAFEF6E7A26B3F
:10439000E16D13680B431360039BDB7F002B02D09E
:1043A0000348FEF729FE07B0F0BDC046808D5B00D4
:1043B000740D0020F0B587B01E000CAB00255D5FCA
:1043C0000DAB1B88040003930C23C05E884250DDB4
:1043D0000E27E35F93424CDD8FB289190297814229
:1043E00001DDC61B36B297B252199A4201DDDD1BC0
:1043F0002DB2A31DDB7F002B09D0002204AB1E4988
:104400005A711A71059A1D480491FEF7D9FD029B55
:104410007A1E013B521992B29B199BB200920299EB
:104420003A002000FFF776FE226B216E13680B43E3
:104430001360A26BE16D13688B431360002D0CDDDC
:104440003700002F06DD03992000013FFFF798FE9B
:104450003FB2F6E7013D2DB2F0E7A26BE16D1368C4
:1044600006340B431360E37F002B02D00348FEF7B2
:10447000C3FD07B0F0BDC046808D5B00740D002009
:1044800010B5024803F053F810BDC0462C100020B0
:1044900013B51249124801F0B0FB1249124801F05D
:1044A000ACFB1249124801F0A8FB1249124801F076
:1044B000A4FB124C1249200001F09FFB1149124845
:1044C00001F09BFB00230193013300930722053386
:1044D00021000E4802F09AFF13BDC04600080042BA
:1044E00068120020000C00426C12002000100042F4
:1044F0007012002000140042741200207812002074
:1045000000180042001C00427C1200202C100020E9
:1045100030B5204A4B0087B05B0893421CDD1E4A31
:10452000934205DD02000B0005F036F907B030BDFF
:1045300002AA00F093F803231840049A059B01286F
:104540000FD002281CD0002815D00298039901240E
:10455000009401F0E5F8E9E70022002300F066FB93
:10456000E4E700900298039901F0DAF880231B0633
:104570009C466144DAE70298039900F057FBD5E7BF
:104580000298039900F052FB80231B069C4661446D
:10459000CCE7C046FB21E93FFFFFEF7FF0B5474680
:1045A000CE4680B58DB004000D0000F067FA294BAF
:1045B00006001B780F005BB29846013310D0220032
:1045C0002B002000290005F02FFC8146002807D190
:1045D000002200232000290003F000FF002806D15C
:1045E000300039000DB00CBC90469946F0BD012357
:1045F0000293194B0694079503934B460A9343463F
:1046000004940595002B15D00023002219001000FA
:1046100004F046FA434608900991022B0ED105F0AA
:104620008FFD212303600A9B0193002B0CD1089E70
:10463000099FD5E7002300240893099402A801F0FC
:10464000C1F90028EFD1EAE705F07AFD0A9B019352
:104650000360ECE716000020C8F00000F0B54E46FD
:104660004546DE465746E0B5E14B4C008FB09046DC
:10467000894664089C4200DC87E0DE4B9C4222DCD9
:10468000DD4A002900DC92E0DC4B05F085F8DB4BCD
:1046900006000F009C4200D17EE1D94AD94B05F0BB
:1046A0007BF802000B00414630000A604B60390085
:1046B00005F072F8D34BD24A05F06EF84346012557
:1046C0009860D9606BE0D04B9C4200DC8FE0CF4B10
:1046D0009C4200DD55E1CE4A231592469A4451464C
:1046E0000905631A19001D00040005F0B9FB05F067
:1046F000EDFB02000B00200029000892099305F051
:104700004BF80022C34B04F0D5FD0F00060005F066
:10471000A7FB05F0DBFB04000D0002000B003000DE
:1047200039000A940B9505F037F80022B94B04F0D4
:10473000C1FD002200230C900D9103F049FE0028DA
:1047400000D192E1002300222000290003F040FE66
:10475000434243410133B04A41460192022208A834
:104760000092524600F07CFB4B460500002B16DA07
:10477000802243461206944642465B6845426344A3
:104780005360D3686344D36009E00B0002004146E4
:104790000A604B600022002300258A60CB6028005D
:1047A0000FB03CBC90469946A246AB46F0BD934B39
:1047B00003F05AFE914B06000F009C4200D13DE1F0
:1047C0008F4A904B03F050FE02000B004146300030
:1047D0000A604B60390004F0DFFF894A894B03F01F
:1047E00043FE012543466D429860D960D7E701F04A
:1047F00049F88A4A8A4B06000F0004F05BFD00224C
:10480000884B03F031FE05F02BFB050005F05EFB45
:10481000794A7A4B0490059104F04CFD02000B009C
:104820003000390004F0B8FF754A06000F00049804
:104830000599744B04F03EFD029003911F2D00DC9E
:10484000C7E0029A039B3000390004F0A5FF8346BD
:104850008A4653465B0024155B0DE31A102B6CDD72
:1048600004980599D322674B520504F023FD0200FA
:104870000B00300039000292039304F08DFF0A0010
:10488000010013000691079202003900300004F085
:1048900083FF029A039B04F07FFF06000F00049839
:1048A0000599614A614B04F005FD32003B0004F0BC
:1048B00073FF069E079F0B00020039003000029232
:1048C000039304F069FF4B005B0D83468A46E41AAC
:1048D000312C32DD04980599B822544B920504F02E
:1048E000E9FC03000C000200029303940B000698FD
:1048F000079904F051FF02000B0006000F00069814
:10490000079904F049FF029A039B04F045FF484AC7
:104910000290039104980599464B04F0CBFC029A4F
:10492000039B04F039FF02000B00300039000292B3
:10493000039304F031FF83468A465A465346414664
:1049400030000A604B60390004F026FF029A039B96
:1049500004F022FF44460B000200A260E3604B46D5
:10496000002B00DB1BE75B46236080231B065344C0
:10497000636080231B069C466144A060E1606D4239
:104980000DE70B00020004F007FF43460025986086
:10499000D9601860596002E7D3221A4B520504F01F
:1049A000FBFE214A214B0D00040004F0F5FE02003D
:1049B0000B00414620000A604B60290004F0ECFE29
:1049C0001A4B194A04F0E8FE434601259860D96065
:1049D000E5E602000B003000390004F0DDFE6B1E3E
:1049E000154A9B009B5883468A46A342A5D130E7CF
:1049F000FB21E93F7BD9024000004054FB21F93FF5
:104A00003163621A61B4D03DFB213941FFFFEF7F72
:104A1000EAFBFFFF0000704150F1000083C8C96D40
:104A2000305FE43F0000E03F7370032E8A19A33B20
:104A3000C14920259A837B39D0F00000D3220C4B4A
:104A4000520503F011FD0B4A0B4B04000D0003F05F
:104A50000BFD02000B00414620000A604B6029005C
:104A600004F09AFE034A044BB9E6032373E6C046FA
:104A700061B4D03D7370032E8A19A33BF8B5474645
:104A8000CE46674B80B50A000F001900050039407B
:104A9000994200D19BE004000100002F69DD3F1521
:104AA00000D1B4E05F4B12039C468023120B5B03E2
:104AB00013435B00CA0F67449B184A00F80703D5ED
:104AC000D20F5B009B188A0079108C460021802051
:104AD0001624894680030D189D4202DC29185B1BB1
:104AE0008144D50F5B00013C5B1952004008002C4B
:104AF000F1D100208046802020250027000609E013
:104B00008B425CD0D40F5B00013DE318520040089B
:104B1000002D16D0C4198B42F2DD27180E00002C90
:104B200049DB5B1AA242894149425B1A121BD40F2E
:104B30005B00013D80443100E31852004008002D25
:104B4000E8D113434ED143465B0837494A4688466D
:104B5000494652104244C90702D5802109060B4339
:104B600061460F05BD18180029000CBC90469946F7
:104B7000F8BD7B005B0803433900002BF5D0002F04
:104B80003CD1E30A153A6405002BFAD0802040039B
:104B900003423FD1002700E00F005B00791C034275
:104BA000FAD0250020208D40401A2900D71B220072
:104BB000C2401A4376E7FE43F60F8E19B1E79442DE
:104BC000A0D82718002CF6DB1E000023AEE7020059
:104BD0003B002800390004F06DFB2A003B0003F085
:104BE00043FCC2E74346013303D0434601335B082D
:104BF000ABE7012398460023C144A6E73B0002002F
:104C000004F0CAFD02000B0003F04AFFADE71300F9
:104C10000022BBE70127210020207F42C6E7C046D3
:104C20000000F07F01FCFFFF0000E03FF0B54746C9
:104C3000CE4680B587B000920193754B4F008146F8
:104C400088467F089F4263DC05F00AF9002800D1FE
:104C5000D4E04A4643464846414604F02BFB040054
:104C60000D006C4A6C4B04F025FB6C4A6C4B03F056
:104C7000FBFB22002B0004F01DFB6A4A6A4B04F088
:104C80008BFD22002B0004F015FB684A684B03F0F3
:104C9000EBFB22002B0004F00DFB664A664B04F090
:104CA0007BFD22002B0004F005FB644A644B03F0FB
:104CB000DBFB22002B0004F0FDFA0290039100229E
:104CC000604B2000290004F0F5FA029A039B0600CD
:104CD0000F002000290004F0EDFA009A019B040067
:104CE0000D004846414604F0E5FA02000B002000A2
:104CF000290004F051FD02000B003000390004F0DF
:104D00004BFD02000B0000204F4904F045FD70E010
:104D100002000B0004F0CEFA04000D003D4A3E4BA9
:104D200004F0C8FA3D4A3E4B03F09EFB22002B00E4
:104D300004F0C0FA3B4A3C4B04F02EFD22002B004D
:104D400004F0B8FA394A3A4B03F08EFB22002B00EC
:104D500004F0B0FA374A384B04F01EFD22002B0055
:104D600004F0A8FA354A364B03F07EFB2B002200F4
:104D700004F0A0FA354B029003919F429FDD344B23
:104D800000229F423DDC334900207B182E4916004B
:104D90001F0004F001FD049005910022294B200022
:104DA000290004F087FA32003B0004F0F5FC029A77
:104DB000039B06000F002000290004F07BFA009AF4
:104DC000019B04000D004846414604F073FA0200BE
:104DD0000B002000290004F0DFFC02000B00300073
:104DE000390004F0D9FC02000B000498059904F086
:104DF000D3FC07B00CBC90469946F0BD0020124988
:104E0000F7E7154B002604920593144FC5E7C046FB
:104E1000FFFF3F3ED43888BEE9FAA8BDC4B1B4BD97
:104E20009EEE213EAD529C804F7E923E9015CB1956
:104E3000A001FA3E7751C1166CC1563F4C555555ED
:104E40005555A53F0000E03F0000F03F3233D33F0F
:104E50000000E93F0000E0FF0000E73F0000D23F14
:104E6000F0B5DE464E4645465746E0B5DC4CA54417
:104E70000D9114001900A49A0993DA4B9200D658A8
:104E80004D1E03901821E01E0696029503F0A4F92A
:104E9000C3430100DB1719404B1C9A009B1ADB002F
:104EA0001B190B9105934C1B771918D4A59BA500D2
:104EB0009C463F1922AE6544013707E0286805F09B
:104EC00005F8013403C60435BC4208D0002CF5DADD
:104ED00000200021013403C60435BC42F6D1069BF4
:104EE000002B01DA00F0FDFB069B03990133DB0088
:104EF0009A46099BDA00944600920022914672AAD3
:104F00000492B94A6144934688469AAB63449B44F1
:104F1000029B002B00DABCE15D4600260027039CC3
:104F20004D442A686B6803CC04F0C4F902000B00FE
:104F30003000390003F098FA083D06000F004445A0
:104F4000EFD1049B4B441E605F6008239C46E14404
:104F5000D145DDD10EA804218446494261448C46E6
:104F6000069A93009C44614684460A910399083B43
:104F700063448C460C93009B009263449B46009ACA
:104F80000498D10003008C46634408911E685F6852
:104F9000002A33DD954980468C466244D30098440C
:104FA00070AB9A460EAB99460022914B3000390007
:104FB00004F080F904F054FF04F088FF00228D4BC8
:104FC00004000D0004F076F902000B0030003900F7
:104FD00004F0E2FB04F044FF4B4601C3994643460C
:104FE00020001A685B68290003F03EFA08235B4240
:104FF0009C46E04406000F00D045D5D1059B30000B
:105000001A003900984600F0DFFCFF2300229B05C0
:1050100004000D0004F04EF900F038FC0022764B3D
:1050200004F048F902000B002000290004F0B4FB52
:105030000D00040004F014FF814604F047FF020055
:105040000B002000290004F0A7FB060040460F00DB
:10505000002800DCEEE0009B18215A1E92000EABE7
:105060009B58091A1D000D41A9448D405D1B0EABD4
:105070009D5017231B1A1D41002D2DDD01239C4639
:10508000009BE144002B00DC1CE20E9C0123002C61
:1050900000D0B5E0009A012A09D099000EAA545810
:1050A0000133002C00D0ACE0009A9A42F5D1059B68
:1050B000002B0EDD012B00D1A8E1022B09D1009BB2
:1050C0000EA95A1E92000EAB9B5807939B029B0A97
:1050D0008B50022D00D1C1E00023002230003900A6
:1050E00003F076F9009B002800D194E2069A591E3D
:1050F0008A4210DC414A0A9894460EAA63449446B8
:1051000000229B0063441C68043B22438342FAD183
:10511000002A00D0C0E0069B0EAA013B9B00D3589A
:10512000002B00D0B3E001220C9B043B59680132F4
:105130000029FAD0009B9C466244110007921A0095
:1051400001338B4246DC0B9863468046A59C434462
:10515000A046099C9B00A1464A449844D30022AA39
:105160009146049A99449446089BA59A63448446C0
:10517000614494469A468B006344009343465868C2
:1051800004F0A4FE4B4618605960029B002B24DB00
:105190004D46039C0026002701E0286869680CCC76
:1051A00004F088F802000B003000390003F05CF9CD
:1051B000083D06000F005C45EFD153469E60DF605E
:1051C00004239C460433E0449C46009BE144E244B3
:1051D0009845D3D1079B0093D1E600260027ECE742
:1051E00094FDFFFF98F2000018FEFFFFFFFFFF1F76
:1051F0000000703E0000704100002040FFFFFF3FB4
:10520000002180225204141B0EAA54500099994286
:105210000EDD0EA884469B000EAA8900D258614478
:105220006344CF4800E01A68821A04C38B42FAD163
:1052300001243CE7059B002B06D1009B0EAA013BF5
:105240009B00D558ED1517E70022C64B300003F040
:10525000E3F8002800D024E100253DE732003B00C0
:105260000020C14904F098FA06000F00002C00D17C
:1052700032E7059A0020BC4900F0A6FB02000B00B3
:105280003000390004F088FA06000F0024E70122FC
:1052900050E70026002754E64B46059A07938846B8
:1052A0008B000EA9CB58183A08950592002B0DD10A
:1052B0008C464146AD4B43449B006344043B5868D5
:1052C0000139183A0028F9D088460592059A00203D
:1052D000A54900F079FB434604000D00002B00DADD
:1052E00005E29E000EAB9C464346DB0066449C46AE
:1052F000059370AB9946049F67440097306804F0AB
:10530000E5FD22002B0003F0D5FF00223860796014
:10531000974B2000290003F0CDFF083F04000D004B
:10532000043EB945EAD14AAB03939B4600239A4613
:10533000069B4246994643460132029204934B46ED
:10534000002B00DAAAE080208A4B009D9846C00519
:10535000894900260027002408E008239C460835D8
:10536000E044544511DC4346186859682A686B6864
:1053700003F0A0FF02000B003000390003F074F8C6
:10538000013406000F00A145E7DA5B46C0C39B4627
:1053900001239C46009BE244083B0093029B9A45F4
:1053A000CDD1049B9846A49B022B00DD8EE0002B00
:1053B00037DC1FD1059B00271D00039B00249C4662
:1053C0001E006544083E2A686B683800210003F01F
:1053D0004BF8083D07000C00AE42F4D1089B002BAF
:1053E00003D080231B069C4664443A0023000D9999
:1053F0000A604B600720079B18409B239B009D443D
:105400003CBC90469946A246AB46F0BD009B0EA917
:105410005A1E92000EAB9B5807935B025B0A8B509F
:1054200057E64346002B00DA70E100200021DB0044
:105430004AAAD61848AF32687368083E03F014F8D9
:10544000B742F8D1089B002B00D025E10B000200E9
:105450004A984B990D9C2260636004F09DF9434685
:1054600007000C00002B13DD01254CAEB1463800BF
:105470002E0021004C4601360CCC02F0F5FFA1466F
:10548000B045F7DA089B07000C00002B00D015E1AF
:105490003A0023000D998A60CB60ABE70026002715
:1054A00073E701239C46009BE1440225002B00DDAD
:1054B000EBE532003B0000202B4904F06DF90600BB
:1054C0000F0009E60024F2E54AAB0393A49B032BEB
:1054D00000D08FE74346002B00DC14E1039ADB0089
:1054E0009B46130091465B441E685F68234B434410
:1054F0000293DB00994448AB9A464B465C681B68B4
:105500001800210032003B000090019102F0ACFF36
:1055100004000D0002000B000098019904F03CF912
:105520003B00320002F0A0FF4B469860D9601C603F
:105530005D6008235B429C46E14426002F00CA457B
:10554000DBD14346012B00DCE3E0039A13005B440C
:105550001E685F68029BDB0099464A44904610E053
:10556000FFFFFF000000E03F0000F03FFFFFFF3FB4
:105570000000703E58F20000FB21F93FFFFFFF1FC3
:10558000984643465C681B681800210032003B00C7
:105590000090019102F068FF04000D0002000B0072
:1055A0000098019904F0F8F832003B0002F05CFF2B
:1055B0004346039A9860D9601C605D60083B2600F2
:1055C0002F009A42DCD14D469446002600244746DF
:1055D000083565442A686B683000210002F044FFFA
:1055E000083D06000C00AF42F4D1039B4A9F5D6862
:1055F0009968D868089B002B65D0802212069446D3
:105600000D9B6544604464441F605D609960D86090
:105610001E615C61EEE69A464B460793059B30009F
:105620005A423900089500F0CFF900223A4B0600A3
:105630000F0002F0F1FE002824D0384B0022300089
:10564000390003F037FE04F00BFC524604009500CD
:1056500004F03CFC0022304B03F02CFE02000B0057
:105660003000390004F098F804F0FAFB0EAA50510B
:105670000122059B524418339046059393000EAACD
:10568000D45023E65346300039009C0004F0E8FB78
:105690000EAB1851D04619E680230D9A1B06CB1885
:1056A000106053600B0002004A984B9904F074F8A4
:1056B000434607000C00002B00DDD5E680231B06C7
:1056C0009C466444E4E62B003A000D9D2A606B6022
:1056D0000A000300AA60EB60320023002A616B61BC
:1056E00088E6099BDB00009372AB049332E4A49B31
:1056F000022B00DDE8E6002B00DD92E600D079E623
:10570000002700246AE6002600246EE7002000211E
:1057100098E60026340068E7000070410000703E03
:10572000F0B5CE46474680B587B000920193474A10
:105730004B00814688465B08934207DC4146484659
:1057400004F08EFB4146031E484666D04A46434657
:105750004846414603F0AEFD04000D0002000B0078
:105760004846414603F0A6FD394A3A4B06000F0071
:105770002000290003F09EFD374A384B04F00CF856
:1057800022002B0003F096FD354A364B02F06CFEEA
:1057900022002B0003F08EFD334A344B03F0FCFF54
:1057A00022002B0003F086FD314B324A02F05CFEF2
:1057B0000E9B02900391002B34D000980199002297
:1057C0002D4B03F077FD029A039B04900591300066
:1057D000390003F06FFD02000B000498059903F0F7
:1057E000DBFF22002B0003F065FD009A019B03F014
:1057F000D3FF224A04000D00214B3000390003F092
:1058000059FD02000B002000290002F02DFE0200CD
:105810000B004846414603F0BFFF07B00CBC904662
:105820009946F0BD02000B002000290003F042FD64
:10583000124A134B03F0B0FF32003B0003F03AFD75
:105840004A46434602F010FEE7E7C046FFFF3F3EF0
:105850007CD5CF5A3AD9E53DEB9C2B8AE6E55A3EFA
:105860007DFEB157E31DC73ED561C119A0012A3F96
:105870001111813FA6F810110000E03F4955555520
:105880005555C53F49004B0819007047474AF0B5C8
:105890004F4691464B005B0D99444646D6464A46D4
:1058A000C0B505000C000E0088460700132A27DC4F
:1058B000002A4BDB3E4B13419A460B0052461340E5
:1058C000034318D03B4A3C4B2800210002F0CCFD9A
:1058D0000022002302F096FD002847D0002C04DAB5
:1058E00080234A465B0313419844464653460027AB
:1058F0009E43380031001CBC90469946A246F0BD3C
:10590000332A08DD8023DB009945F4D102000B0027
:1059100002F0AAFDEFE7294A94460122634452426D
:10592000DA4092460242E6D0224A234B2800210068
:1059300002F09AFD0022002302F064FD002815D039
:10594000002C1EDB534646469F430FE0194A1A4B74
:105950002800210002F088FD0022002302F052FD01
:10596000002803D0002C04DB00270026380031007B
:10597000C1E76400640825430027002DF6D0104ECF
:10598000F4E74B46142B0BD03422D21A0123934058
:105990005D19BD4208D201239C462F00E044D1E7A7
:1059A000133B9C46E044CDE72F00CBE701FCFFFF13
:1059B000FFFF0F009C7500883CE4377EEDFBFFFF86
:1059C0000000F0BF002070474B0070B55B0D140065
:1059D0000A00002B1AD14B005B08034315D0234B60
:1059E000002203F067FC224B9C422DDB0A004B0097
:1059F0005B0D363B1F4DE318AB422ADC002B0DDD5F
:105A00001D4C1B0522401A43110070BD1B4DAB42BB
:105A1000F0D102000B0002F027FDF6E71D0035353E
:105A200019DA174B02009C4209DD0B001548164994
:105A300000F032F8134A144B03F03CFCE5E70B008E
:105A40001248134900F028F8104A114B03F032FCB9
:105A5000DBE70200E9E7084C363322401B0513431D
:105A6000190000220B4B03F025FCCEE70000504349
:105A7000B03CFFFFFE070000FFFF0F80FF070000A4
:105A800050C300009C7500883CE4377E59F3F8C28F
:105A90001F6EA5010000903C30B54A00DB0FDB070C
:105AA00052081A43110030BDF7B506000D000C0076
:105AB0008B180193019B671B9C4207D033682178A8
:105AC0001B683000984701340028F3D13800FEBD30
:105AD00070B5040008000D0005F044FC23680200C6
:105AE00029005B682000984770BD10B50B1E02D0DE
:105AF000FFF7EEFF0300180010BD10B503688A68B9
:105B00005B680968984710BD10B5FFF7EEFF10BD40
:105B100010B503681B68984710BD000010B5024916
:105B2000FFF7D6FF10BDC046A8F2000070B5050013
:105B3000FFF7E3FF04002800FFF7F0FF201870BD17
:105B400070B50400FFF7D1FF05002000FFF7E6FF66
:105B5000401970BDF0B58BB06B46150000220533BF
:105B60000600DA770800012D00D80A2509AC2900C3
:105B700002F02EFBCAB2130037330700DBB209294B
:105B800002D813003033DBB2013C2370002FEED17A
:105B900021003000FFF7A9FF0BB0F0BDF8B50600FB
:105BA0000C00151E04D10368C9B21B689847F8BDE4
:105BB0000A2A0CD100290BDA2D21FFF7A9FF614237
:105BC00007002A003000FFF7C5FF3818EFE7D2B210
:105BD00021003000FFF7BEFFE9E710B5FFF7DEFF59
:105BE00010BD70B50400FFF7D9FF05002000FFF7D6
:105BF00095FF401970BD10007047016070479446D2
:105C0000F0B59E1E721E96416246056892072F6887
:105C100036063A4332432A60072505AC24780068EB
:105C2000A4012940214342680024022B00D05C03D8
:105C3000114321434160F0BD30B5C0250368AD0379
:105C40001C6812052A402243C0240904A4022140F2
:105C50001143196003685A6814435C6030BD012326
:105C6000026811680B43136003681A68D207FCD4FA
:105C7000DA69D207F9D470470223026811680B432E
:105C800013600268D3699B07FCD4704703681A7ECF
:105C9000D20702D41A7E9207FCD57047002203680F
:105CA0005A8370470368187E4007C00F7047036827
:105CB000187EC0097047802302685B42117E0B4347
:105CC000137670470368588B8007C00F7047022314
:105CD0000268518B0B43538370470368187EC007DB
:105CE000C00F70470368188DC0B2704703681A7EF2
:105CF000D207FCD589B201201985704701220368BB
:105D00009A757047012203681A757047012302686B
:105D100011680B43136003681A68D207FCD4DA6970
:105D2000D207F9D470470223026811680B4313604D
:105D30000268D3699B07FCD470470368DA6992074D
:105D4000FCD402211A688A431A6070470268936A79
:105D50005B0A5B021943916203681A7E5207FCD505
:105D6000986AC0B27047000010B54900044802F0BC
:105D7000A9F980B2002801D0013880B2C0B210BDAC
:105D8000006CDC0270B54B080C00012105680B406B
:105D90000C402E6824075B07234333432B6011001C
:105DA0000468FFF7E1FF207370BD80230268DB0207
:105DB000116851680B435360704700000368034942
:105DC0001A685A680A405A607047C046FFFFFBFFD6
:105DD000032230B5036811401C68074D5A68090456
:105DE0002A40E4061143640F5960052C03D1026870
:105DF000D3695B07FCD430BDFFFFFCFF0368283389
:105E00001970036800201A7E520704D5588B0123AD
:105E10004007C00F5840704703681868C006400F1D
:105E2000043843425841C0B270470368187E4007A7
:105E3000C00F70470368187EC007C00F7047036823
:105E4000588BC006C00F70470368187E8007C00FCC
:105E500070470368588B0007C00F704703681A68C3
:105E6000D206520F052A02D11A7E9207FCD528339A
:105E70001878C0B2704700000368104A934213D0EC
:105E80000F4A934212D00F4A934211D00E4A9342C6
:105E900010D00E4A93420FD001200D4A4042934247
:105EA00001D1063040B270470020FBE70120F9E73E
:105EB0000220F7E70320F5E70420F3E7000800429B
:105EC000000C004200100042001400420018004282
:105ED000001C0042F8B5FFF7CFFF00282CDBC30001
:105EE0001C48FF22C01805230479C356032018401C
:105EF000C0008240C021D2438140002B1DDB1F2502
:105F000001201D40C026A840134D7600A851C02690
:105F10009B089B005B19B6009F593A401143995169
:105F200028603F2323408024E4011C430B4B5C800A
:105F30005A7852B2002AFBDBF8BD0F200340083B21
:105F400007489B089B001B18D86902401143D96180
:105F5000E7E7C046ACF2000000E100E0000C0040C2
:105F600000ED00E0F8B504000F0016001D00FFF77B
:105F7000B1FF2000FFF773FE1C21BB000B4071072F
:105F80002268090C0B431360842322689375012F48
:105F90001AD11021012E00D008390C4B6943186822
:105FA000C00002F08FF80722216802408B8952035B
:105FB000DB04DB0C13438B81226803049089DB0C28
:105FC000400B400318439081F8BDC0469400002068
:105FD000F7B50400019308AB0D0016001F78FFF71A
:105FE00095FE2000FFF776FFC0223605920332406F
:105FF0000C261643C0222D04920215400722236866
:106000003543BF072F431F60019B216813401A00CF
:1060100080239B0213434B602268D3695B07FCD447
:10602000F7BD3F20704713B56B460268D97107333F
:10603000546819000122A04716BD000010B50221C6
:10604000006900F00BFD034B1B6801335A1E93419E
:10605000181810BD6800002010B50321006900F079
:1060600013FD10BD10B50321006900F0DBFC10BD6D
:1060700010B5054C23685A1C04D103685B69984726
:1060800003002060180010BD68000020074B0200CC
:10609000186810B5411C03D0012252421A6010BD8D
:1060A0000221106900F0DAFDF9E7C046680000201F
:1060B00010B51300094A0400D079C0B2002805D1F8
:1060C000627E002A02D00123636006E00A00206994
:1060D000032100F0D1FD0028F5D010BD1C000020E8
:1060E00010B503784222023303700249024800F0DF
:1060F0006FFE10BD240000209C12002010B5017816
:10610000020043780020A12908D1212B05D10722C4
:106110001649174800F05CFE012010BD2129FCD172
:10612000202B13D107221149114800F0F1FC9622CF
:106130000E4BD200196891420ED10124D879044047
:106140000AD1FA2001F0B6FE0020E6E7222B06D1A4
:106150009278064BDA71EAE701F0B2FEF4E7232BFE
:10616000DBD15288034B1A60D7E7C0461C000020E1
:106170009C12002018000020012343767047000085
:10618000FA220021054B92009A60054A59600832B4
:106190001A60044A19761A617047C04680120020BE
:1061A000DCF200009C1200207047704770B50F268B
:1061B000CB1D013902003240D5B22C000009303429
:1061C000092A00DD07341C70013B8B42F2D170BDFF
:1061D000A02110B50400490001F05BFF200010BDB4
:1061E000F8B5032908D1304B8000C058002802D0F0
:1061F00003689B689847F8BD822919D1C3B22B4D1B
:106200005A01AA1891692A4C80010C40C0218905C5
:106210002143916127490833401870215061286853
:106220005B011A5C8A43110030220A431A54E2E7E8
:106230000029E0D1C026C1B21C4C4B01E3189A687A
:106240001B4DB6052A4032439A601B4A80018218D2
:106250005A600A000727246808325201115DB943C9
:106260000F000121394311559F6912493D404018E3
:106270002E439E6158617020115D814308001021FA
:106280000143115599680D48A2180840802149031F
:10629000014399609968890B8903996040231179BA
:1062A0000B431371A7E7C046A0120020541700202B
:1062B000FFFFFF8FC812002088140020FF3F00F06E
:1062C000EFF3108303600123436072B670470368E5
:1062D000002B02D162B6BFF36F8F7047F7B5050090
:1062E000FC35EB690600002B18D196277F00C45DB2
:1062F0006846FFF7E5FF019BE4B2013B02D3F45D82
:10630000E4B2FAE768460193FFF7E1FF002C01D100
:106310000020FEBDE86AAB6AC01AFAE76846FFF7DC
:10632000CFFF9E220024019B5200013B02D3B45CAC
:10633000E4B2FAE768460193FFF7C9FF002CE7D003
:10634000E86BAB6BE8E7000030B54468FC304369AC
:106350008069DBB25A01A2189168094D8004294076
:1063600000090143916091680833890B89039160AA
:1063700022685B01D318402219790A431A7130BD93
:10638000FF3F00F0F7B50500FF21FC356A6943685F
:106390000A401B68083252019A18D3790400DB07BF
:1063A00054D50126D6716B6962680B405B01D31826
:1063B000286A9A689204920C002822D1EA62EA6A5A
:1063C000002A40D06A6B2E6268465A60FFF778FF59
:1063D0009E273E21019B7F00013BFF315A1C2ED09E
:1063E00096225200A654E25D581ED2B2002A05D071
:1063F000665468460193FFF76AFFF7BD62540300D5
:10640000ECE7EA63EA6B002A1DD000222A626A6A7E
:1064100068465A60FFF754FF96273E21019B7F0094
:10642000013BFF315A1C0AD09E225200A654E25D65
:10643000581ED2B2002ADBD162540300F2E768464C
:106440000193FFF744FF2000FFF77EFF63681A689F
:106450006B69DBB208335B01D3187F22DA71CCE7BA
:10646000F7B5070068463C00FFF72AFF0026FF2229
:10647000019BFC34013B0DD3E0682169884204DBB9
:10648000E6682069961B3618F4E72669E168761AF3
:10649000013EEFE768460193FFF719FFE36968469D
:1064A000002B52D1FFF70CFF9621019B4900013BC5
:1064B0005A1C0CD07D5C5A1EEDB2002D05D16846E9
:1064C0000193FFF704FF2800FEBD1300F0E76846C4
:1064D00001930025FFF7FBFEFF21A36AB54214D00C
:1064E000E26A9A4211D95A1CA262626AD3181878D9
:1064F000E36822690133C0B20B40934203D0E268E3
:10650000BA181072E3600135E7E7E26A9A42DAD11D
:106510000023A3620133E36168469624FFF7D0FEAF
:1065200064003E220021019BFF32013B581CC6D073
:106530003955B85C5E1E002805D0B9543800019367
:10654000FFF702FFEDE73300F0E7FFF7B9FE9E210A
:10655000019B4900013B5A1C06D07D5C5A1EEDB2DE
:10656000002DACD01300F6E7684601930025FFF735
:10657000AEFEFF21A36BB54202D0E26B9A421DD85A
:10658000E26B9A429FD100236846A363E3619E2495
:10659000FFF796FE64003E220021019BFF32013B83
:1065A000581C00D18BE73955B85C5E1E002817D007
:1065B000B95438000193FFF7C7FEECE75A1CA263F9
:1065C000626BD3181878E36822690133C0B20B40BC
:1065D000934203D0E268BA181072E3600135C9E74C
:1065E0003300DDE710B50400FFF73AFF2300FC336A
:1065F0001969DA68914203D01B69E418207A10BD4A
:1066000001204042FBE710B50400FC34FFF728FFEF
:10661000E0682369C01A01D50130FF3010BDF0B524
:1066200085B0019200910500FFF71AFF02A8FFF75D
:1066300047FE01200024FF26039B40425A1E531CA4
:106640001FD02B00FC3301998C4218D2D9681F69E6
:10665000C91B01D50131FF31002910D01969DF684C
:106660008C460100BC4506D019691F6969180137BD
:106670003740097A1F61009F39550134E3E7013A39
:10668000DDE702A80392FFF722FE200005B0F0BD6F
:1066900037B56B46DC1D00230D0020002370FFF78B
:1066A0001FFD2B681818286001F092FC210001F0F2
:1066B0004BFC2B681818286020783EBD02220B0086
:1066C00010B593430C00012B0BD10D4B08341B6804
:1066D00064011C19802321795B420B432371E27111
:1066E00010BD01F075FC210001F062FC0028F7D01C
:1066F000034B08341B6864011C197F23E371EFE727
:106700005417002070B50024374B012105000B20E1
:106710001C7001F007FB01210B2001F033FB334B10
:1067200001210C201C7001F0FDFA01210C2001F068
:1067300029FB20232E4A0F20D1690B43D36101226C
:106740002C490B7813430B702B4B1978814319702C
:1067500006211C782143197028490C7822430A70BD
:106760001A7802401A70602219780A431A70244B72
:10677000244A5A805A78D209FCD1234801F05EF8A5
:10678000224C7F26200001F035FC200001F04AFC5D
:106790000C2108232068C2788A4313430322C37064
:1067A0002068C3789343013A1343C3702068037889
:1067B0003340037004232068067833430370206855
:1067C00003898B430381C120114980000B581B02B0
:1067D0001B0A0B5080230B60236819780A431A7038
:1067E00001232B7070BDC046BD120020BC120020DA
:1067F00000040040584400413C44004159440041D9
:10680000000C0040064000004172000054170020B8
:1068100000E100E00078002810D00121084B1B683F
:106820001A898A431A810822198B0A431A8304227F
:10683000198B0A431A830022024B1A607047C04624
:10684000541700204C17002010B50F4A93699B0B7A
:106850009B03936113680222FF331A729879823A7C
:1068600002439A711A7A9207FCD57F24074A214085
:10687000937A0800A3431900802301439172917A0F
:106880005B420B43937210BD54170020005000412F
:1068900010B50B790C00002B0CD10800FFF72EFC73
:1068A000002801D0012010BD094A93699B0B9B036E
:1068B0009361F7E701F08CFB210001F069FB0028F0
:1068C000F0D1034A93699B0B9B039361EBE7C046AE
:1068D00054170020F8B50D00832A19D1CBB2434CD0
:1068E0005A01A21891694248AD010840C0218905AA
:1068F000014391613F4920686D187021083355614B
:106900005B011A5C8A43110040220A431A54F8BD05
:10691000022A65D1384B8A00D058002802D003687B
:106920009B699847A020400001F010F880270600DE
:10693000324B7F0003602D4B002143603A0008304A
:1069400003F07EFC340096220023FC345200E36006
:10695000A36223616561E361A7612362E362B354CB
:106960001032A363E363B3543E223800FF32B354C2
:1069700003F024FC6062380003F020FC2B0060630D
:10698000FF201A4903405A018A189168184F0833AA
:106990000F40C0218905394307279160134A5B01E5
:1069A0001168AD005A5CBA43170003223A435A54A7
:1069B00061697368014049015918636A4B607368E3
:1069C00062691B68024052019B1801221B18997AC8
:1069D00030000A439A72FFF7B7FC074BEE5096E778
:1069E00011002800FFF7FCFB91E7C0465417002078
:1069F000FFFFFF8FC8120020A01200200CF3000040
:106A000070B505000124064BA200D258002A06D01A
:106A1000210028000134FFF75DFF0A2CF3D170BD7F
:106A20006C0000200B4BCAB20B488901C9185301F6
:106A3000C318596199690832890B89039961036800
:106A400052019A180223D3715179823B0B4353713F
:106A50007047C046C812002054170020084B8A0017
:106A6000D05810B5002803D00368DB68984710BDE4
:106A7000C9B2044B4901591888688004800CF6E7B4
:106A8000A01200205417002010B50C00FFF7E6FFFD
:106A900000280CD0064BE4B21B68083464011C19B2
:106AA000802362795B42134363710223E37110BD5B
:106AB0005417002070B5CBB2124A13485C0189010B
:106AC0008918021951609168104D08330D408021DA
:106AD00089022943402591609168890B890391605F
:106AE00001685A018A1816793543157195796D0632
:106AF000FCD55B01C918CB79DB07FCD50019806890
:106B0000C0B270BD8814002054170020FF3F00F071
:106B100070B5140040220B4B0D001B68FF335979F0
:106B20000A435A710021FFF7C5FFA04200D9200097
:106B300000230549A34203D0CA5CEA540133F9E7B4
:106B400070BDC046541700208814002010B5C9B28B
:106B50000B484901421893689B049B0C3F2B0BD9AF
:106B60009468403B9B04A40B9B0CA40323439360B9
:106B700041188868C0B210BD93689B0B9B03F6E771
:106B800054170020F0B51C002F4B85B01B68060081
:106B90000D000192002B54D02C4F3978C9B2002936
:106BA00002D10C2001F0EEF864233B70284BAA00C0
:106BB000D058002808D0036822005B6801999847E4
:106BC0000400200005B0F0BD29003000FFF746FFAB
:106BD000844204D929003000FFF740FF0400290057
:106BE0003000FFF7B3FF0121EBB21A4F03935B01B3
:106BF0000293029A3B6801989B18FF335A7A0A4322
:106C00005A72154BA901C918220003F0FDFA002C95
:106C1000D7D029003000FFF721FF0028D1D1402133
:106C2000039B3A6808335B01D31818790143197143
:106C30000121D971029BD318FF339A7A0A439A72C1
:106C4000BFE701246442BCE74C170020BC120020BF
:106C5000A0120020541700208814002013B56B46A2
:106C6000DC1D22000123FFF78DFF012801D12078D0
:106C700016BD01204042FBE7F0B51E003A4B85B03F
:106C80001B680F000192002B3FD08023DB019E4246
:106C90003BD8364C2178C9B2002902D10B2001F033
:106CA00071F8642300252370314BBA01D318029385
:106CB000002E2CD02F4B1B680393FF233B401C005E
:106CC00000930834039B64011C19A379DB0921D0CC
:106CD000294B2A49186801F0F5F9294B1721584327
:106CE00001F0F0F9274BE279920713D4DA5D002A1C
:106CF00001D10138F7D20122DA55009B5A011D4B10
:106D00009B189A69920B92039A6101256D422800A3
:106D100005B0F0BD00221B4B3400DA55402E00D9DF
:106D2000402422000199029803F06EFA009BA1040E
:106D30005A01104B890C9B18029A2D195A619A69B5
:106D4000361B920B92030A439A61009B039A083305
:106D50005B01D3180222DA715979823A0A435A71D7
:106D6000019B1B190193A3E74C170020BD120020C3
:106D7000C8120020541700209400002040420F0049
:106D800070110100BF12002070B50D001C000D4BEA
:106D9000AE01F61811003000220003F035FAEDB212
:106DA00009496D014D196E61AB69084A2000134015
:106DB000AB61AB69A2049B0B920C9B031343AB61C9
:106DC00070BDC046C812002054170020FF3F00F0DD
:106DD000F7B5104B01901B780F001500002B0CD15C
:106DE0000D4B16001C78002C09D00C4E0C48348832
:106DF0002018641903F008FA34802800FEBD002E24
:106E0000FBD03A19330000210198FFF7BDFF241889
:106E1000361AF4E748160020491700204A170020C8
:106E200049160020F8B5002000AF0E001500012A19
:106E300027D9D31D6A46DB08DB00D31A9D4608001C
:106E400004F090FA6C460323022200210130400036
:106E500020706370AA420DD2307800280AD0531CEB
:106E6000DBB20136A0549D4203D00232E154D2B2CB
:106E7000F0E72A0021000448FFF7AAFF431E9841CB
:106E8000C0B2BD46F8BDC0469C120020F0B500243B
:106E9000012685B0184B0F0069461E70050000944E
:106EA000FFF7F6FB154B01A90B806A3BFF3BCB714B
:106EB0006E3B0B72009B8C7109334B800E4B4E71F5
:106EC00008711C703A00092F0FD00D4F09223E7037
:106ED0000C4E280000943480FFF77AFF69462800A2
:106EE000FFF7D6FB328808493C702800FFF770FF97
:106EF000012005B0F0BDC046481600200902000080
:106F0000491700204A17002049160020F0B5CF7815
:106F100093B005000E00022F09D1C9882D48FFF754
:106F2000B5FF441EA041C4B2200013B0F0BD01F073
:106F30004FF8310001F01CF8002803D0C417241AC0
:106F4000E40FF1E7012F0FD1F288082A0AD0224975
:106F5000112A13D8D2B2002A10D02800FFF738FF28
:106F60000124E1E71D49F5E70400032FDCD1B378E4
:106F7000002B05D1F2881A49032AEBD90A78ECE7ED
:106F8000022B06D1B27917492800FFF74BFF040006
:106F9000CAE7012B02D1B2791349F5E7032BC3D11C
:106FA000124B01A91868FFF701F9114B03A91868E2
:106FB000FFF7FCF80F4B05A91868FFF7F7F80E4B21
:106FC00007A91868FFF7F2F86B460533DC77B2794A
:106FD00001A9D9E79C12002044F3000056F30000F9
:106FE0003AF300002CF300003EF300000CA08000F8
:106FF00040A0800044A0800048A0800037B5040075
:1070000048780D000B2810D801F048F8061B0F2B0C
:107010000F40456D494C6669097801AA002906D1DF
:10702000022311802000FFF7AFFE01203EBD0023A8
:1070300013802E4B1B78012B00D1137002230021EB
:10704000F0E78A780023012A03D101AA1380284B94
:10705000F0E7264A1370274A93699B0B9B039361C1
:10706000E3E78D78012D06D10021214B01AA1D7087
:1070700011702B00D6E70120002DD7D11B4B1D4AE4
:10708000187093699B0B9B039361CFE7897820006D
:10709000FFF7DAFBC9E72000FFF738FFC6E7012357
:1070A000154ACCE70B780020DB06BFD12000FFF7A4
:1070B000A7FC2A20AA78104BFF301A6002230D4A41
:1070C00011680C5C23434A240B54FF340B5D2938B0
:1070D000FF3803430B55D4E70123084AAFE78A780A
:1070E000064B1A60B7E70020A0E7C046BE1200209A
:1070F000C6120020541700204C1700205017002003
:10710000474BF7B51C780600002C7CD1454D2B6809
:107110009B8B1B070ED521002000FFF761F82A6822
:1071200010231100FF31887A03438B723E4B1C60A1
:10713000082393832B689A8B52071FD504229A83C6
:107140003A4A1378002B0AD01378013BDBB2137054
:107150001378002B03D101210B2000F013FE344AD9
:107160001378002B0AD01378013BDBB2137013782D
:10717000002B03D101210C2000F004FE2B68FF330B
:107180001A7AD2061ED510221A72597930320A4361
:107190005A716023274930000A781A4234D1FFF728
:1071A0002DFF2B68FF33002831D08022997952427D
:1071B0000A439A711A7A520604D540221A72597AF1
:1071C0000A435A72012427002B681B8CA343DBB2AD
:1071D0000193019B23413B4212D023002A680833CC
:1071E0005B01D318DA79D20702D4DB799B0707D584
:1071F000114BA200D05800280DD003681B68984797
:107200000134082CE5D1F7BDFFF742FBC9E7202187
:107210000A4A9171CEE7E1B23000FFF74FFAEFE78B
:1072200049170020541700204C170020BD120020E1
:10723000BC12002088140020A0120020FF50004142
:1072400010B50248FFF75CFF10BDC0469C1200203D
:10725000014B024A1A607047541700200050004149
:107260000120704710B50368014A1B6A984710BD9A
:10727000130400000300FC33D9699A69914203D0DA
:10728000DB69C018007D704701204042FBE710B564
:1072900004000069FEF7E3FC22000023FC32936146
:1072A000D36186229200A4186360A36010BDF02011
:1072B00001403039484248417047F0231B011940D2
:1072C000802306209B0099420AD00133FF3301300E
:1072D000994205D0802302385B00994200D00020FB
:1072E00070470F2001400020012903D00239481EB9
:1072F0008141481C704700008923F0B5182685B0ED
:1073000002919B000400C05C330008214343324DCE
:107310001700EB18595600F06BFD304B0821E05C6C
:1073200033004343EB18595600F062FD2C4BE25CEE
:107330000393022A09D11133E05CFF2805D008210C
:107340004643AE19715600F053FD8A26B600A05D83
:10735000FF2819D0012100F0E5FC1822A35D214986
:107360005A43AB56AD18DB0158188B218900605089
:107370001D4901225B188C218900635069688A408D
:107380008D21890062501A600122029B1100206940
:10739000FEF7E8FD39002000FFF78FFF39000500F8
:1073A0002000FFF79EFF390006002000FFF77FFF57
:1073B00033000090290020690122FEF720FC0B4BCE
:1073C0002069E25C039BE15CFEF736FC2069FEF776
:1073D00053FC05B0F0BDC04630EF000025020000B0
:1073E0002702000018440041144400412602000016
:1073F000802210B504005200002102F021FF23007A
:107400000022FC335A6020009A6010BDF7B51D00C1
:1074100008AB1B780400009309AB1B78160001939E
:1074200000234360FA239B008360114B0F00083355
:1074300003601430FFF7DCFF20001D30FF30FFF742
:10744000D7FF89236A469B002761E654094B1278CF
:10745000E554094B2000E2546A46084B1279E25485
:107460008A22293BFF3B9200A3541032A354FEBD55
:1074700068F3000025020000260200002702000039
:107480000300FC3359689A68914204DB5A68986893
:10749000801AFF30704798685B68C01A0138F9E7B6
:1074A00010B51D30FF30FFF7EBFF10BD030070B5C6
:1074B000FC33D9699A69040091421AD0DA698218BA
:1074C000157DDA690132D2B2DA618A239B00E35C6E
:1074D000FF2B0CD020001430FFF7D2FF0A2806DD66
:1074E0008C238D229B009200E358A2581A6028003A
:1074F00070BD01256D42E8E70300FC3358689B68C6
:10750000C01A01D50130FF30704710B504002000CB
:107510001D30FF30FFF7F0FF0028F8D12069FEF79B
:10752000B5FB10BD10B51430FFF7E6FF10BD10B568
:1075300004000069FEF7C6FB002805D02069FEF7AD
:10754000D1FB2069FEF7C3FB2069FEF7ABFB0028E7
:1075500020D02069FEF7C6FB2200FC329369D16976
:107560000133DBB28B4203D09169611808759361D6
:107570008A239B00E35CFF2B0CD020001430FFF724
:107580007FFF092806DC8B238D229B009200E358A5
:10759000A2581A602069FEF7A0FB00281AD020002C
:1075A0001D30FF30FFF7A8FF002822D086239B0064
:1075B000E31899685A68914218D08E219A68490058
:1075C000A218515C9A680132D2B29A60C9B220699D
:1075D000FEF78CFB2069FEF76AFB002805D02069C6
:1075E000FEF769FB2069FEF759FB10BD01214942F6
:1075F000ECE72069FEF786FBECE7000070B50400BD
:1076000000690D00FEF769FB00283ED1FF268623A6
:107610009B00E3185A689968013232408A4223D1AC
:10762000EFF31083DB070DD41E4B5B68DB05DB0D2E
:10763000EDD0103B5BB2002B0DDB9B08C0331A4A28
:107640009B009B582069FEF748FB0028DFD02000F4
:10765000FFF76DFFDBE70F221340083B9B08134A3F
:107660009B009B181B68EDE75A68013216409A6828
:10767000964205D08E215A684900A21855545E6082
:107680002069FEF73BFB012070BD20001D30FF305C
:10769000FFF732FF0028B9D129002069FEF726FB49
:1076A000F1E7C04600ED00E000E100E01CED00E085
:1076B00010B50024084B1B68A34200D810BD074A30
:1076C0000749A30010695958014203D01161054AC6
:1076D0009B5898470134EDE7E0180020001800405F
:1076E0009C18002058180020054B10B51B6C002B6F
:1076F00000D098470123034AD1780B43D37010BDC3
:10770000581800200018004010B50400006802F06E
:107710005FFD200010BD10B504000068002801D0F6
:1077200002F056FD00232360A360636010BD70B5B6
:1077300004000D000068013103F0CCFD031E01D0F0
:10774000012028C470BD036810B50400002B04D0CC
:1077500043688B4201D3012010BD2000FFF7E7FFF3
:107760000028F9D0A368002BF5D122681370F2E746
:1077700070B50E00110004001500FFF7E4FF0028AB
:1077800004D12000FFF7C7FF200070BDA5603100C5
:10779000206803F0DFFDF7E7002370B504000D005B
:1077A000036043608360994207D0080003F0DAFD6C
:1077B000290002002000FFF7DBFF200070BDFEE77C
:1077C000FEE70000034B10B51B68002B00D0984764
:1077D00010BDC046E418002070B50F490F4CA142FF
:1077E00004D100F0D9F800F099F8FEE70C4D002321
:1077F0008D42F6D0CA18E818A24205D3094B82423E
:10780000EFD00949002204E0006804331060F1E77A
:1078100004C38B42FCD3E4E7000000209402002064
:1078200070F70000980200200819002010B500F041
:107830005EF8002801D100F04FF810BD014B186030
:107840007047C046E4180020F7B51348012284466B
:107850001249134C8E68636805689B0E13400192B1
:1078600088686268019F920E3A4067463F6893427B
:107870000ED1BD420CD186420AD35B19FA25486865
:10788000AD00861B07486B437043000DC018FEBD5A
:107890003D0013000600E3E7E818002010E000E0D8
:1078A00000ED00E05555000070B5041E10D0FFF744
:1078B000CBFF050000F01AF8FFF7C6FF054B401B91
:1078C0009842F7D9FA23013C9B00ED18002CF3D124
:1078D00070BDC046E703000010B5034A13680133CA
:1078E000136000F0F5FA10BDE81800207047002082
:1078F0007047704710B5FAF761FEFAF749FCFFF7D9
:10790000F5FF034B002BF8D000E000BFF5E7C046C1
:107910000000000010B5FFF7EDFF000010B500F00B
:10792000EBF802F023FCFFF7E4FF0120FFF7BCFFB8
:10793000054C2000FEF7E6FE2000FEF76BFFFFF788
:10794000E9FF002010BDC0469C12002010B502F0D7
:1079500035FC10BD10B502F03BFC10BD10B50200A7
:10796000EFF3108172B60A4B1868002801D109485C
:10797000186018688218EFF30884A24204D21A60D3
:10798000002900D162B610BD01204042F8E7C04690
:10799000EC180020081900201E2270B546484749FF
:1079A000436893431C3A1343436008238C69234381
:1079B0008B61434C434B9C829C8A14439C82DC68C1
:1079C0001442FCD00124404A14701578254203D09B
:1079D00055786DB2002DF8DB01249460547864B2C0
:1079E000002CFBDB394C5460547864B2002CFBDB78
:1079F0008224E4015480547864B2002CFBDB02241E
:107A00009C840E34DD682542FCD0314CDC621024AD
:107A1000DD682542FCD09D8C2E4C2C439C84102488
:107A2000DD682542FCD002249D8C80262C439C845A
:107A30004024DD683542FCD0DD682542F9D01024B1
:107A4000DD682542FCD000249460547864B2002C98
:107A5000FBDB214C5460547864B2002CFBDB1C6AC5
:107A60001E4D2C4080251C621C6AAC431C62032303
:107A700093601B4B536053785BB2002BFBDB0023FE
:107A8000FF240B72174A4B728B72CB72164B1A6023
:107A9000164B174A1B6811689A065B01C90E2340F2
:107AA000520F12020B431343124A1385802342687C
:107AB0001343436070BDC0460040004100040040D5
:107AC0000C06000000080040000C00400105010009
:107AD000B905FF7D040A000000070300FFFCFFFF5B
